{
  "contractName": "VoteStorage",
  "abi": [
    {
      "inputs": [
        {
          "internalType": "bytes",
          "name": "_signature",
          "type": "bytes"
        },
        {
          "internalType": "bytes",
          "name": "_randomNumber",
          "type": "bytes"
        }
      ],
      "name": "storeVote",
      "outputs": [],
      "stateMutability": "nonpayable",
      "type": "function"
    },
    {
      "inputs": [],
      "name": "getVotesCount",
      "outputs": [
        {
          "internalType": "uint256",
          "name": "",
          "type": "uint256"
        }
      ],
      "stateMutability": "view",
      "type": "function"
    },
    {
      "inputs": [
        {
          "internalType": "uint256",
          "name": "index",
          "type": "uint256"
        }
      ],
      "name": "getVote",
      "outputs": [
        {
          "internalType": "bytes",
          "name": "",
          "type": "bytes"
        },
        {
          "internalType": "bytes",
          "name": "",
          "type": "bytes"
        }
      ],
      "stateMutability": "view",
      "type": "function"
    }
  ],
  "bytecode": "0x608060405234801561000f575f80fd5b506109698061001d5f395ff3fe608060405234801561000f575f80fd5b506004361061003f575f3560e01c80631b605b86146100435780635a55c1f014610061578063b3829b3214610092575b5f80fd5b61004b6100ae565b60405161005891906102e5565b60405180910390f35b61007b60048036038101906100769190610339565b6100b9565b6040516100899291906103ee565b60405180910390f35b6100ac60048036038101906100a7919061054f565b610261565b005b5f8080549050905090565b6060805f805490508310610102576040517f08c379a00000000000000000000000000000000000000000000000000000000081526004016100f99061061f565b60405180910390fd5b5f8084815481106101165761011561063d565b5b905f5260205f2090600202016040518060400160405290815f8201805461013c90610697565b80601f016020809104026020016040519081016040528092919081815260200182805461016890610697565b80156101b35780601f1061018a576101008083540402835291602001916101b3565b820191905f5260205f20905b81548152906001019060200180831161019657829003601f168201915b505050505081526020016001820180546101cc90610697565b80601f01602080910402602001604051908101604052809291908181526020018280546101f890610697565b80156102435780601f1061021a57610100808354040283529160200191610243565b820191905f5260205f20905b81548152906001019060200180831161022657829003601f168201915b5050505050815250509050805f015181602001519250925050915091565b5f604051806040016040528084815260200183815250908060018154018082558091505060019003905f5260205f2090600202015f909190919091505f820151815f0190816102b09190610864565b5060208201518160010190816102c69190610864565b5050505050565b5f819050919050565b6102df816102cd565b82525050565b5f6020820190506102f85f8301846102d6565b92915050565b5f604051905090565b5f80fd5b5f80fd5b610318816102cd565b8114610322575f80fd5b50565b5f813590506103338161030f565b92915050565b5f6020828403121561034e5761034d610307565b5b5f61035b84828501610325565b91505092915050565b5f81519050919050565b5f82825260208201905092915050565b5f5b8381101561039b578082015181840152602081019050610380565b5f8484015250505050565b5f601f19601f8301169050919050565b5f6103c082610364565b6103ca818561036e565b93506103da81856020860161037e565b6103e3816103a6565b840191505092915050565b5f6040820190508181035f83015261040681856103b6565b9050818103602083015261041a81846103b6565b90509392505050565b5f80fd5b5f80fd5b7f4e487b71000000000000000000000000000000000000000000000000000000005f52604160045260245ffd5b610461826103a6565b810181811067ffffffffffffffff821117156104805761047f61042b565b5b80604052505050565b5f6104926102fe565b905061049e8282610458565b919050565b5f67ffffffffffffffff8211156104bd576104bc61042b565b5b6104c6826103a6565b9050602081019050919050565b828183375f83830152505050565b5f6104f36104ee846104a3565b610489565b90508281526020810184848401111561050f5761050e610427565b5b61051a8482856104d3565b509392505050565b5f82601f83011261053657610535610423565b5b81356105468482602086016104e1565b91505092915050565b5f806040838503121561056557610564610307565b5b5f83013567ffffffffffffffff8111156105825761058161030b565b5b61058e85828601610522565b925050602083013567ffffffffffffffff8111156105af576105ae61030b565b5b6105bb85828601610522565b9150509250929050565b5f82825260208201905092915050565b7f496e646578206f7574206f662072616e676500000000000000000000000000005f82015250565b5f6106096012836105c5565b9150610614826105d5565b602082019050919050565b5f6020820190508181035f830152610636816105fd565b9050919050565b7f4e487b71000000000000000000000000000000000000000000000000000000005f52603260045260245ffd5b7f4e487b71000000000000000000000000000000000000000000000000000000005f52602260045260245ffd5b5f60028204905060018216806106ae57607f821691505b6020821081036106c1576106c061066a565b5b50919050565b5f819050815f5260205f209050919050565b5f6020601f8301049050919050565b5f82821b905092915050565b5f600883026107237fffffffffffffffffffffffffffffffffffffffffffffffffffffffffffffffff826106e8565b61072d86836106e8565b95508019841693508086168417925050509392505050565b5f819050919050565b5f61076861076361075e846102cd565b610745565b6102cd565b9050919050565b5f819050919050565b6107818361074e565b61079561078d8261076f565b8484546106f4565b825550505050565b5f90565b6107a961079d565b6107b4818484610778565b505050565b5b818110156107d7576107cc5f826107a1565b6001810190506107ba565b5050565b601f82111561081c576107ed816106c7565b6107f6846106d9565b81016020851015610805578190505b610819610811856106d9565b8301826107b9565b50505b505050565b5f82821c905092915050565b5f61083c5f1984600802610821565b1980831691505092915050565b5f610854838361082d565b9150826002028217905092915050565b61086d82610364565b67ffffffffffffffff8111156108865761088561042b565b5b6108908254610697565b61089b8282856107db565b5f60209050601f8311600181146108cc575f84156108ba578287015190505b6108c48582610849565b86555061092b565b601f1984166108da866106c7565b5f5b82811015610901578489015182556001820191506020850194506020810190506108dc565b8683101561091e578489015161091a601f89168261082d565b8355505b6001600288020188555050505b50505050505056fea2646970667358221220ae32808b422d3214ecf690c8015af0a876fd02ca9f783350dcfaa2f86e63fb6164736f6c63430008150033",
  "immutableReferences": {},
  "source": "// SPDX-License-Identifier: MIT\r\npragma solidity ^0.8.21;\r\n\r\ncontract VoteStorage {\r\n    struct Vote {\r\n        bytes signature;\r\n        bytes randomNumber;\r\n    }\r\n\r\n    Vote[] private votes;\r\n\r\n    /// @dev \r\n    function storeVote(bytes memory _signature, bytes memory _randomNumber) public {\r\n        votes.push(Vote(_signature, _randomNumber));\r\n    }\r\n\r\n    /// @dev \r\n    function getVotesCount() public view returns (uint256) {\r\n        return votes.length;\r\n    }\r\n\r\n    /// @dev \r\n    function getVote(uint256 index) public view returns (bytes memory, bytes memory) {\r\n        require(index < votes.length, \"Index out of range\");\r\n        Vote memory vote = votes[index];\r\n        return (vote.signature, vote.randomNumber);\r\n    }\r\n}",
  "sourcePath": "C:\\Users\\yuan\\votestorage\\contracts\\votestorage.sol",
  "compiler": {
    "name": "solc",
    "version": "0.8.21+commit.d9974bed.Emscripten.clang"
  },
  "schemaVersion": "3.4.16",
  "updatedAt": "2024-06-07T09:44:05.414Z",
  "devdoc": {
    "kind": "dev",
    "methods": {
      "getVote(uint256)": {
        "details": ""
      },
      "getVotesCount()": {
        "details": ""
      },
      "storeVote(bytes,bytes)": {
        "details": ""
      }
    },
    "version": 1
  },
  "userdoc": {
    "kind": "user",
    "methods": {},
    "version": 1
  }
}